:100000000C9434000C943E000C943E000C943E0082
:100010000C943E000C943E000C943E000C943E0068
:100020000C943E000C943E000C943E000C943E0058
:100030000C943E000C943E000C943E000C943E0048
:100040000C943E000C943E000C943E000C943E0038
:100050000C943E000C943E000C943E000C943E0028
:100060000C943E000C943E0011241FBECFEFD8E04C
:10007000DEBFCDBF0E9440000C9461000C940000D4
:100080008FEF8AB983E085BD83E884BD3FE02EE130
:100090008AE090E037BD4FE35DE063E041505040BF
:1000A0006040E1F700C0000027BD4FE35DE063E082
:1000B000415050406040E1F700C00000019751F707
:0600C000E7CFF894FFCF2A
:00000001FF
