S00F0000444134537465702E73726563C0
S11300000C9434000C943E000C943E000C943E007E
S11300100C943E000C943E000C943E000C943E0064
S11300200C943E000C943E000C943E000C943E0054
S11300300C943E000C943E000C943E000C943E0044
S11300400C943E000C943E000C943E000C943E0034
S11300500C943E000C943E000C943E000C943E0024
S11300600C943E000C943E0011241FBECFEFD8E048
S1130070DEBFCDBF0E9440000C9473000C940000BE
S11300808FEF87B958E044E032E021E085E090E06A
S113009058B96FEF79E6E8E161507040E040E1F76C
S11300A000C0000048B96FEF79E6E8E161507040A4
S11300B0E040E1F700C0000038B96FEF79E6E8E10D
S11300C061507040E040E1F700C0000028B96FEFD4
S11300D079E6E8E161507040E040E1F700C00000DB
S10D00E00197B1F6D3CFF894FFCFD7
S9030000FC
